{
  "_format": "hh-sol-artifact-1",
  "contractName": "ContractRegistry",
  "sourceName": "contracts/ContractRegistry.sol",
  "abi": [
    {
      "anonymous": false,
      "inputs": [
        {
          "indexed": false,
          "internalType": "string",
          "name": "tradeId",
          "type": "string"
        },
        {
          "indexed": false,
          "internalType": "address",
          "name": "partyA",
          "type": "address"
        },
        {
          "indexed": false,
          "internalType": "address",
          "name": "partyB",
          "type": "address"
        }
      ],
      "name": "ContractApproved",
      "type": "event"
    },
    {
      "anonymous": false,
      "inputs": [
        {
          "indexed": true,
          "internalType": "string",
          "name": "tradeId",
          "type": "string"
        },
        {
          "indexed": false,
          "internalType": "string",
          "name": "contractHash",
          "type": "string"
        },
        {
          "indexed": false,
          "internalType": "string",
          "name": "assetId",
          "type": "string"
        },
        {
          "indexed": true,
          "internalType": "address",
          "name": "registrant",
          "type": "address"
        },
        {
          "indexed": false,
          "internalType": "uint256",
          "name": "timestamp",
          "type": "uint256"
        }
      ],
      "name": "ContractRegistered",
      "type": "event"
    },
    {
      "anonymous": false,
      "inputs": [
        {
          "indexed": false,
          "internalType": "string",
          "name": "tradeId",
          "type": "string"
        }
      ],
      "name": "ContractRejected",
      "type": "event"
    },
    {
      "inputs": [],
      "name": "getAllTradeIds",
      "outputs": [
        {
          "internalType": "string[]",
          "name": "",
          "type": "string[]"
        }
      ],
      "stateMutability": "view",
      "type": "function"
    },
    {
      "inputs": [
        {
          "internalType": "string",
          "name": "_tradeId",
          "type": "string"
        }
      ],
      "name": "getContract",
      "outputs": [
        {
          "internalType": "string",
          "name": "contractHash",
          "type": "string"
        },
        {
          "internalType": "string",
          "name": "assetId",
          "type": "string"
        },
        {
          "internalType": "address",
          "name": "registrant",
          "type": "address"
        },
        {
          "internalType": "uint256",
          "name": "timestamp",
          "type": "uint256"
        }
      ],
      "stateMutability": "view",
      "type": "function"
    },
    {
      "inputs": [
        {
          "internalType": "string",
          "name": "_tradeId",
          "type": "string"
        }
      ],
      "name": "getVoteStatus",
      "outputs": [
        {
          "internalType": "bool",
          "name": "",
          "type": "bool"
        },
        {
          "internalType": "bool",
          "name": "",
          "type": "bool"
        },
        {
          "internalType": "bool",
          "name": "",
          "type": "bool"
        },
        {
          "internalType": "bool",
          "name": "",
          "type": "bool"
        },
        {
          "internalType": "bool",
          "name": "",
          "type": "bool"
        }
      ],
      "stateMutability": "view",
      "type": "function"
    },
    {
      "inputs": [
        {
          "internalType": "string",
          "name": "_tradeId",
          "type": "string"
        }
      ],
      "name": "getVoters",
      "outputs": [
        {
          "internalType": "address",
          "name": "",
          "type": "address"
        },
        {
          "internalType": "address",
          "name": "",
          "type": "address"
        }
      ],
      "stateMutability": "view",
      "type": "function"
    },
    {
      "inputs": [
        {
          "internalType": "string",
          "name": "_contractHash",
          "type": "string"
        },
        {
          "internalType": "string",
          "name": "_assetId",
          "type": "string"
        },
        {
          "internalType": "string",
          "name": "_tradeId",
          "type": "string"
        },
        {
          "internalType": "address",
          "name": "_partyA",
          "type": "address"
        },
        {
          "internalType": "address",
          "name": "_partyB",
          "type": "address"
        }
      ],
      "name": "registerContract",
      "outputs": [],
      "stateMutability": "nonpayable",
      "type": "function"
    },
    {
      "inputs": [
        {
          "internalType": "uint256",
          "name": "",
          "type": "uint256"
        }
      ],
      "name": "tradeIds",
      "outputs": [
        {
          "internalType": "string",
          "name": "",
          "type": "string"
        }
      ],
      "stateMutability": "view",
      "type": "function"
    },
    {
      "inputs": [
        {
          "internalType": "string",
          "name": "_tradeId",
          "type": "string"
        },
        {
          "internalType": "bool",
          "name": "approval",
          "type": "bool"
        }
      ],
      "name": "voteOnContract",
      "outputs": [],
      "stateMutability": "nonpayable",
      "type": "function"
    }
  ],
  "bytecode": "0x608060405234801561001057600080fd5b50611f22806100206000396000f3fe608060405234801561001057600080fd5b506004361061007d5760003560e01c80638d7b60f21161005b5780638d7b60f21461011a578063a81f0e7614610138578063e0f5fe3514610154578063ff52c484146101705761007d565b8063358177731461008257806356187063146100b5578063878af335146100e9575b600080fd5b61009c60048036038101906100979190611378565b6101a0565b6040516100ac949392919061149a565b60405180910390f35b6100cf60048036038101906100ca9190611378565b610454565b6040516100e0959493929190611508565b60405180910390f35b61010360048036038101906100fe9190611378565b6105e8565b60405161011192919061155b565b60405180910390f35b61012261075f565b60405161012f9190611690565b60405180910390f35b610152600480360381019061014d91906116de565b610838565b005b61016e600480360381019061016991906117d9565b610bff565b005b61018a60048036038101906101859190611861565b611115565b604051610197919061188e565b60405180910390f35b606080600080600080866040516101b791906118ec565b90815260200160405180910390206040518060a00160405290816000820180546101e090611932565b80601f016020809104026020016040519081016040528092919081815260200182805461020c90611932565b80156102595780601f1061022e57610100808354040283529160200191610259565b820191906000526020600020905b81548152906001019060200180831161023c57829003601f168201915b5050505050815260200160018201805461027290611932565b80601f016020809104026020016040519081016040528092919081815260200182805461029e90611932565b80156102eb5780601f106102c0576101008083540402835291602001916102eb565b820191906000526020600020905b8154815290600101906020018083116102ce57829003601f168201915b5050505050815260200160028201805461030490611932565b80601f016020809104026020016040519081016040528092919081815260200182805461033090611932565b801561037d5780601f106103525761010080835404028352916020019161037d565b820191906000526020600020905b81548152906001019060200180831161036057829003601f168201915b505050505081526020016003820160009054906101000a900473ffffffffffffffffffffffffffffffffffffffff1673ffffffffffffffffffffffffffffffffffffffff1673ffffffffffffffffffffffffffffffffffffffff1681526020016004820154815250509050600081604001515103610430576040517f08c379a0000000000000000000000000000000000000000000000000000000008152600401610427906119af565b60405180910390fd5b80600001518160200151826060015183608001519450945094509450509193509193565b60008060008060008060018760405161046d91906118ec565b90815260200160405180910390206040518060e00160405290816000820160009054906101000a900473ffffffffffffffffffffffffffffffffffffffff1673ffffffffffffffffffffffffffffffffffffffff1673ffffffffffffffffffffffffffffffffffffffff1681526020016001820160009054906101000a900473ffffffffffffffffffffffffffffffffffffffff1673ffffffffffffffffffffffffffffffffffffffff1673ffffffffffffffffffffffffffffffffffffffff1681526020016001820160149054906101000a900460ff161515151581526020016001820160159054906101000a900460ff161515151581526020016001820160169054906101000a900460ff161515151581526020016001820160179054906101000a900460ff161515151581526020016001820160189054906101000a900460ff16151515158152505090508060400151816060015182608001518360a001518460c00151955095509550955095505091939590929450565b60008060006001846040516105fd91906118ec565b90815260200160405180910390206040518060e00160405290816000820160009054906101000a900473ffffffffffffffffffffffffffffffffffffffff1673ffffffffffffffffffffffffffffffffffffffff1673ffffffffffffffffffffffffffffffffffffffff1681526020016001820160009054906101000a900473ffffffffffffffffffffffffffffffffffffffff1673ffffffffffffffffffffffffffffffffffffffff1673ffffffffffffffffffffffffffffffffffffffff1681526020016001820160149054906101000a900460ff161515151581526020016001820160159054906101000a900460ff161515151581526020016001820160169054906101000a900460ff161515151581526020016001820160179054906101000a900460ff161515151581526020016001820160189054906101000a900460ff1615151515815250509050806000015181602001519250925050915091565b60606002805480602002602001604051908101604052809291908181526020016000905b8282101561082f5783829060005260206000200180546107a290611932565b80601f01602080910402602001604051908101604052809291908181526020018280546107ce90611932565b801561081b5780601f106107f05761010080835404028352916020019161081b565b820191906000526020600020905b8154815290600101906020018083116107fe57829003601f168201915b505050505081526020019060010190610783565b50505050905090565b6000808460405161084991906118ec565b9081526020016040518091039020600201805461086590611932565b9050146108a7576040517f08c379a000000000000000000000000000000000000000000000000000000000815260040161089e90611a1b565b60405180910390fd5b60006040518060a001604052808781526020018681526020018581526020013373ffffffffffffffffffffffffffffffffffffffff168152602001428152509050806000856040516108f991906118ec565b9081526020016040518091039020600082015181600001908161091c9190611be7565b5060208201518160010190816109329190611be7565b5060408201518160020190816109489190611be7565b5060608201518160030160006101000a81548173ffffffffffffffffffffffffffffffffffffffff021916908373ffffffffffffffffffffffffffffffffffffffff160217905550608082015181600401559050506002849080600181540180825580915050600190039060005260206000200160009091909190915090816109d19190611be7565b506040518060e001604052808473ffffffffffffffffffffffffffffffffffffffff1681526020018373ffffffffffffffffffffffffffffffffffffffff16815260200160001515815260200160001515815260200160001515815260200160001515815260200160001515815250600185604051610a5091906118ec565b908152602001604051809103902060008201518160000160006101000a81548173ffffffffffffffffffffffffffffffffffffffff021916908373ffffffffffffffffffffffffffffffffffffffff16021790555060208201518160010160006101000a81548173ffffffffffffffffffffffffffffffffffffffff021916908373ffffffffffffffffffffffffffffffffffffffff16021790555060408201518160010160146101000a81548160ff02191690831515021790555060608201518160010160156101000a81548160ff02191690831515021790555060808201518160010160166101000a81548160ff02191690831515021790555060a08201518160010160176101000a81548160ff02191690831515021790555060c08201518160010160186101000a81548160ff0219169083151502179055509050503373ffffffffffffffffffffffffffffffffffffffff1684604051610bb491906118ec565b60405180910390207fbdaf0c65899aedb3c98177fbc2011fd10574451c583c9fc6acf8f16df0017b6a888842604051610bef93929190611cb9565b60405180910390a3505050505050565b6000600183604051610c1191906118ec565b908152602001604051809103902090508060010160189054906101000a900460ff1615610c73576040517f08c379a0000000000000000000000000000000000000000000000000000000008152600401610c6a90611d4a565b60405180910390fd5b8060000160009054906101000a900473ffffffffffffffffffffffffffffffffffffffff1673ffffffffffffffffffffffffffffffffffffffff163373ffffffffffffffffffffffffffffffffffffffff1603610d5a578060010160149054906101000a900460ff1615610d1c576040517f08c379a0000000000000000000000000000000000000000000000000000000008152600401610d1390611db6565b60405180910390fd5b60018160010160146101000a81548160ff021916908315150217905550818160010160166101000a81548160ff021916908315150217905550610e7d565b8060010160009054906101000a900473ffffffffffffffffffffffffffffffffffffffff1673ffffffffffffffffffffffffffffffffffffffff163373ffffffffffffffffffffffffffffffffffffffff1603610e41578060010160159054906101000a900460ff1615610e03576040517f08c379a0000000000000000000000000000000000000000000000000000000008152600401610dfa90611e22565b60405180910390fd5b60018160010160156101000a81548160ff021916908315150217905550818160010160176101000a81548160ff021916908315150217905550610e7c565b6040517f08c379a0000000000000000000000000000000000000000000000000000000008152600401610e7390611e8e565b60405180910390fd5b5b8060010160149054906101000a900460ff168015610ea957508060010160159054906101000a900460ff165b15611110578060010160169054906101000a900460ff168015610eda57508060010160179054906101000a900460ff165b15610f845760018160010160186101000a81548160ff0219169083151502179055507f1847a00667536f9a800b592c1feb45f0d88b51d3f08bc8bc16d1d7b826eca8a2838260000160009054906101000a900473ffffffffffffffffffffffffffffffffffffffff168360010160009054906101000a900473ffffffffffffffffffffffffffffffffffffffff16604051610f7793929190611eae565b60405180910390a161110f565b600083604051610f9491906118ec565b908152602001604051809103902060008082016000610fb391906111c1565b600182016000610fc391906111c1565b600282016000610fd391906111c1565b6003820160006101000a81549073ffffffffffffffffffffffffffffffffffffffff02191690556004820160009055505060018360405161101491906118ec565b9081526020016040518091039020600080820160006101000a81549073ffffffffffffffffffffffffffffffffffffffff02191690556001820160006101000a81549073ffffffffffffffffffffffffffffffffffffffff02191690556001820160146101000a81549060ff02191690556001820160156101000a81549060ff02191690556001820160166101000a81549060ff02191690556001820160176101000a81549060ff02191690556001820160186101000a81549060ff021916905550507f754b2d183a7ec99536ad659e824463c03225fd1d0de308e45432625c701e4cc383604051611106919061188e565b60405180910390a15b5b505050565b6002818154811061112557600080fd5b90600052602060002001600091509050805461114090611932565b80601f016020809104026020016040519081016040528092919081815260200182805461116c90611932565b80156111b95780601f1061118e576101008083540402835291602001916111b9565b820191906000526020600020905b81548152906001019060200180831161119c57829003601f168201915b505050505081565b5080546111cd90611932565b6000825580601f106111df57506111fe565b601f0160209004906000526020600020908101906111fd9190611201565b5b50565b5b8082111561121a576000816000905550600101611202565b5090565b6000604051905090565b600080fd5b600080fd5b600080fd5b600080fd5b6000601f19601f8301169050919050565b7f4e487b7100000000000000000000000000000000000000000000000000000000600052604160045260246000fd5b6112858261123c565b810181811067ffffffffffffffff821117156112a4576112a361124d565b5b80604052505050565b60006112b761121e565b90506112c3828261127c565b919050565b600067ffffffffffffffff8211156112e3576112e261124d565b5b6112ec8261123c565b9050602081019050919050565b82818337600083830152505050565b600061131b611316846112c8565b6112ad565b90508281526020810184848401111561133757611336611237565b5b6113428482856112f9565b509392505050565b600082601f83011261135f5761135e611232565b5b813561136f848260208601611308565b91505092915050565b60006020828403121561138e5761138d611228565b5b600082013567ffffffffffffffff8111156113ac576113ab61122d565b5b6113b88482850161134a565b91505092915050565b600081519050919050565b600082825260208201905092915050565b60005b838110156113fb5780820151818401526020810190506113e0565b60008484015250505050565b6000611412826113c1565b61141c81856113cc565b935061142c8185602086016113dd565b6114358161123c565b840191505092915050565b600073ffffffffffffffffffffffffffffffffffffffff82169050919050565b600061146b82611440565b9050919050565b61147b81611460565b82525050565b6000819050919050565b61149481611481565b82525050565b600060808201905081810360008301526114b48187611407565b905081810360208301526114c88186611407565b90506114d76040830185611472565b6114e4606083018461148b565b95945050505050565b60008115159050919050565b611502816114ed565b82525050565b600060a08201905061151d60008301886114f9565b61152a60208301876114f9565b61153760408301866114f9565b61154460608301856114f9565b61155160808301846114f9565b9695505050505050565b60006040820190506115706000830185611472565b61157d6020830184611472565b9392505050565b600081519050919050565b600082825260208201905092915050565b6000819050602082019050919050565b600082825260208201905092915050565b60006115cc826113c1565b6115d681856115b0565b93506115e68185602086016113dd565b6115ef8161123c565b840191505092915050565b600061160683836115c1565b905092915050565b6000602082019050919050565b600061162682611584565b611630818561158f565b935083602082028501611642856115a0565b8060005b8581101561167e578484038952815161165f85826115fa565b945061166a8361160e565b925060208a01995050600181019050611646565b50829750879550505050505092915050565b600060208201905081810360008301526116aa818461161b565b905092915050565b6116bb81611460565b81146116c657600080fd5b50565b6000813590506116d8816116b2565b92915050565b600080600080600060a086880312156116fa576116f9611228565b5b600086013567ffffffffffffffff8111156117185761171761122d565b5b6117248882890161134a565b955050602086013567ffffffffffffffff8111156117455761174461122d565b5b6117518882890161134a565b945050604086013567ffffffffffffffff8111156117725761177161122d565b5b61177e8882890161134a565b935050606061178f888289016116c9565b92505060806117a0888289016116c9565b9150509295509295909350565b6117b6816114ed565b81146117c157600080fd5b50565b6000813590506117d3816117ad565b92915050565b600080604083850312156117f0576117ef611228565b5b600083013567ffffffffffffffff81111561180e5761180d61122d565b5b61181a8582860161134a565b925050602061182b858286016117c4565b9150509250929050565b61183e81611481565b811461184957600080fd5b50565b60008135905061185b81611835565b92915050565b60006020828403121561187757611876611228565b5b60006118858482850161184c565b91505092915050565b600060208201905081810360008301526118a88184611407565b905092915050565b600081905092915050565b60006118c6826113c1565b6118d081856118b0565b93506118e08185602086016113dd565b80840191505092915050565b60006118f882846118bb565b915081905092915050565b7f4e487b7100000000000000000000000000000000000000000000000000000000600052602260045260246000fd5b6000600282049050600182168061194a57607f821691505b60208210810361195d5761195c611903565b5b50919050565b7f5472616465204944206e6f7420666f756e640000000000000000000000000000600082015250565b60006119996012836113cc565b91506119a482611963565b602082019050919050565b600060208201905081810360008301526119c88161198c565b9050919050565b7f547261646520494420616c726561647920657869737473000000000000000000600082015250565b6000611a056017836113cc565b9150611a10826119cf565b602082019050919050565b60006020820190508181036000830152611a34816119f8565b9050919050565b60008190508160005260206000209050919050565b60006020601f8301049050919050565b600082821b905092915050565b600060088302611a9d7fffffffffffffffffffffffffffffffffffffffffffffffffffffffffffffffff82611a60565b611aa78683611a60565b95508019841693508086168417925050509392505050565b6000819050919050565b6000611ae4611adf611ada84611481565b611abf565b611481565b9050919050565b6000819050919050565b611afe83611ac9565b611b12611b0a82611aeb565b848454611a6d565b825550505050565b600090565b611b27611b1a565b611b32818484611af5565b505050565b5b81811015611b5657611b4b600082611b1f565b600181019050611b38565b5050565b601f821115611b9b57611b6c81611a3b565b611b7584611a50565b81016020851015611b84578190505b611b98611b9085611a50565b830182611b37565b50505b505050565b600082821c905092915050565b6000611bbe60001984600802611ba0565b1980831691505092915050565b6000611bd78383611bad565b9150826002028217905092915050565b611bf0826113c1565b67ffffffffffffffff811115611c0957611c0861124d565b5b611c138254611932565b611c1e828285611b5a565b600060209050601f831160018114611c515760008415611c3f578287015190505b611c498582611bcb565b865550611cb1565b601f198416611c5f86611a3b565b60005b82811015611c8757848901518255600182019150602085019450602081019050611c62565b86831015611ca45784890151611ca0601f891682611bad565b8355505b6001600288020188555050505b505050505050565b60006060820190508181036000830152611cd38186611407565b90508181036020830152611ce78185611407565b9050611cf6604083018461148b565b949350505050565b7f416c72656164792066696e616c697a6564000000000000000000000000000000600082015250565b6000611d346011836113cc565b9150611d3f82611cfe565b602082019050919050565b60006020820190508181036000830152611d6381611d27565b9050919050565b7f416c726561647920766f74656420627920410000000000000000000000000000600082015250565b6000611da06012836113cc565b9150611dab82611d6a565b602082019050919050565b60006020820190508181036000830152611dcf81611d93565b9050919050565b7f416c726561647920766f74656420627920420000000000000000000000000000600082015250565b6000611e0c6012836113cc565b9150611e1782611dd6565b602082019050919050565b60006020820190508181036000830152611e3b81611dff565b9050919050565b7f4e6f7420617574686f72697a6564000000000000000000000000000000000000600082015250565b6000611e78600e836113cc565b9150611e8382611e42565b602082019050919050565b60006020820190508181036000830152611ea781611e6b565b9050919050565b60006060820190508181036000830152611ec88186611407565b9050611ed76020830185611472565b611ee46040830184611472565b94935050505056fea2646970667358221220d26d0c032e0046007000ffbebbbd8baea9c18050a4a5c6c0f7ad27cd8595e8b264736f6c63430008140033",
  "linkReferences": {},
  "deployedLinkReferences": {}
}