{
  "_format": "hh-sol-artifact-1",
  "contractName": "ContractRegistry",
  "sourceName": "contracts/ContractRegistry.sol",
  "abi": [
    {
      "anonymous": false,
      "inputs": [
        {
          "indexed": true,
          "internalType": "string",
          "name": "tradeId",
          "type": "string"
        },
        {
          "indexed": false,
          "internalType": "string",
          "name": "contractHash",
          "type": "string"
        },
        {
          "indexed": false,
          "internalType": "string",
          "name": "assetId",
          "type": "string"
        },
        {
          "indexed": true,
          "internalType": "address",
          "name": "registrant",
          "type": "address"
        },
        {
          "indexed": false,
          "internalType": "uint256",
          "name": "timestamp",
          "type": "uint256"
        }
      ],
      "name": "ContractRegistered",
      "type": "event"
    },
    {
      "inputs": [
        {
          "internalType": "string",
          "name": "_tradeId",
          "type": "string"
        }
      ],
      "name": "getContract",
      "outputs": [
        {
          "internalType": "string",
          "name": "contractHash",
          "type": "string"
        },
        {
          "internalType": "string",
          "name": "assetId",
          "type": "string"
        },
        {
          "internalType": "address",
          "name": "registrant",
          "type": "address"
        },
        {
          "internalType": "uint256",
          "name": "timestamp",
          "type": "uint256"
        }
      ],
      "stateMutability": "view",
      "type": "function"
    },
    {
      "inputs": [
        {
          "internalType": "string",
          "name": "_contractHash",
          "type": "string"
        },
        {
          "internalType": "string",
          "name": "_assetId",
          "type": "string"
        },
        {
          "internalType": "string",
          "name": "_tradeId",
          "type": "string"
        }
      ],
      "name": "registerContract",
      "outputs": [],
      "stateMutability": "nonpayable",
      "type": "function"
    },
    {
      "inputs": [
        {
          "internalType": "uint256",
          "name": "",
          "type": "uint256"
        }
      ],
      "name": "tradeIds",
      "outputs": [
        {
          "internalType": "string",
          "name": "",
          "type": "string"
        }
      ],
      "stateMutability": "view",
      "type": "function"
    }
  ],
  "bytecode": "0x608060405234801561001057600080fd5b50610ea2806100206000396000f3fe608060405234801561001057600080fd5b50600436106100415760003560e01c80633581777314610046578063c972136a14610079578063ff52c48414610095575b600080fd5b610060600480360381019061005b9190610787565b6100c5565b60405161007094939291906108a9565b60405180910390f35b610093600480360381019061008e91906108fc565b610379565b005b6100af60048036038101906100aa91906109cf565b610581565b6040516100bc91906109fc565b60405180910390f35b606080600080600080866040516100dc9190610a5a565b90815260200160405180910390206040518060a001604052908160008201805461010590610aa0565b80601f016020809104026020016040519081016040528092919081815260200182805461013190610aa0565b801561017e5780601f106101535761010080835404028352916020019161017e565b820191906000526020600020905b81548152906001019060200180831161016157829003601f168201915b5050505050815260200160018201805461019790610aa0565b80601f01602080910402602001604051908101604052809291908181526020018280546101c390610aa0565b80156102105780601f106101e557610100808354040283529160200191610210565b820191906000526020600020905b8154815290600101906020018083116101f357829003601f168201915b5050505050815260200160028201805461022990610aa0565b80601f016020809104026020016040519081016040528092919081815260200182805461025590610aa0565b80156102a25780601f10610277576101008083540402835291602001916102a2565b820191906000526020600020905b81548152906001019060200180831161028557829003601f168201915b505050505081526020016003820160009054906101000a900473ffffffffffffffffffffffffffffffffffffffff1673ffffffffffffffffffffffffffffffffffffffff1673ffffffffffffffffffffffffffffffffffffffff1681526020016004820154815250509050600081604001515103610355576040517f08c379a000000000000000000000000000000000000000000000000000000000815260040161034c90610b1d565b60405180910390fd5b80600001518160200151826060015183608001519450945094509450509193509193565b6000808260405161038a9190610a5a565b908152602001604051809103902060020180546103a690610aa0565b9050146103e8576040517f08c379a00000000000000000000000000000000000000000000000000000000081526004016103df90610b89565b60405180910390fd5b60006040518060a001604052808581526020018481526020018381526020013373ffffffffffffffffffffffffffffffffffffffff1681526020014281525090508060008360405161043a9190610a5a565b9081526020016040518091039020600082015181600001908161045d9190610d55565b5060208201518160010190816104739190610d55565b5060408201518160020190816104899190610d55565b5060608201518160030160006101000a81548173ffffffffffffffffffffffffffffffffffffffff021916908373ffffffffffffffffffffffffffffffffffffffff160217905550608082015181600401559050506001829080600181540180825580915050600190039060005260206000200160009091909190915090816105129190610d55565b503373ffffffffffffffffffffffffffffffffffffffff16826040516105389190610a5a565b60405180910390207fbdaf0c65899aedb3c98177fbc2011fd10574451c583c9fc6acf8f16df0017b6a86864260405161057393929190610e27565b60405180910390a350505050565b6001818154811061059157600080fd5b9060005260206000200160009150905080546105ac90610aa0565b80601f01602080910402602001604051908101604052809291908181526020018280546105d890610aa0565b80156106255780601f106105fa57610100808354040283529160200191610625565b820191906000526020600020905b81548152906001019060200180831161060857829003601f168201915b505050505081565b6000604051905090565b600080fd5b600080fd5b600080fd5b600080fd5b6000601f19601f8301169050919050565b7f4e487b7100000000000000000000000000000000000000000000000000000000600052604160045260246000fd5b6106948261064b565b810181811067ffffffffffffffff821117156106b3576106b261065c565b5b80604052505050565b60006106c661062d565b90506106d2828261068b565b919050565b600067ffffffffffffffff8211156106f2576106f161065c565b5b6106fb8261064b565b9050602081019050919050565b82818337600083830152505050565b600061072a610725846106d7565b6106bc565b90508281526020810184848401111561074657610745610646565b5b610751848285610708565b509392505050565b600082601f83011261076e5761076d610641565b5b813561077e848260208601610717565b91505092915050565b60006020828403121561079d5761079c610637565b5b600082013567ffffffffffffffff8111156107bb576107ba61063c565b5b6107c784828501610759565b91505092915050565b600081519050919050565b600082825260208201905092915050565b60005b8381101561080a5780820151818401526020810190506107ef565b60008484015250505050565b6000610821826107d0565b61082b81856107db565b935061083b8185602086016107ec565b6108448161064b565b840191505092915050565b600073ffffffffffffffffffffffffffffffffffffffff82169050919050565b600061087a8261084f565b9050919050565b61088a8161086f565b82525050565b6000819050919050565b6108a381610890565b82525050565b600060808201905081810360008301526108c38187610816565b905081810360208301526108d78186610816565b90506108e66040830185610881565b6108f3606083018461089a565b95945050505050565b60008060006060848603121561091557610914610637565b5b600084013567ffffffffffffffff8111156109335761093261063c565b5b61093f86828701610759565b935050602084013567ffffffffffffffff8111156109605761095f61063c565b5b61096c86828701610759565b925050604084013567ffffffffffffffff81111561098d5761098c61063c565b5b61099986828701610759565b9150509250925092565b6109ac81610890565b81146109b757600080fd5b50565b6000813590506109c9816109a3565b92915050565b6000602082840312156109e5576109e4610637565b5b60006109f3848285016109ba565b91505092915050565b60006020820190508181036000830152610a168184610816565b905092915050565b600081905092915050565b6000610a34826107d0565b610a3e8185610a1e565b9350610a4e8185602086016107ec565b80840191505092915050565b6000610a668284610a29565b915081905092915050565b7f4e487b7100000000000000000000000000000000000000000000000000000000600052602260045260246000fd5b60006002820490506001821680610ab857607f821691505b602082108103610acb57610aca610a71565b5b50919050565b7f5472616465204944206e6f7420666f756e640000000000000000000000000000600082015250565b6000610b076012836107db565b9150610b1282610ad1565b602082019050919050565b60006020820190508181036000830152610b3681610afa565b9050919050565b7f547261646520494420616c726561647920657869737473000000000000000000600082015250565b6000610b736017836107db565b9150610b7e82610b3d565b602082019050919050565b60006020820190508181036000830152610ba281610b66565b9050919050565b60008190508160005260206000209050919050565b60006020601f8301049050919050565b600082821b905092915050565b600060088302610c0b7fffffffffffffffffffffffffffffffffffffffffffffffffffffffffffffffff82610bce565b610c158683610bce565b95508019841693508086168417925050509392505050565b6000819050919050565b6000610c52610c4d610c4884610890565b610c2d565b610890565b9050919050565b6000819050919050565b610c6c83610c37565b610c80610c7882610c59565b848454610bdb565b825550505050565b600090565b610c95610c88565b610ca0818484610c63565b505050565b5b81811015610cc457610cb9600082610c8d565b600181019050610ca6565b5050565b601f821115610d0957610cda81610ba9565b610ce384610bbe565b81016020851015610cf2578190505b610d06610cfe85610bbe565b830182610ca5565b50505b505050565b600082821c905092915050565b6000610d2c60001984600802610d0e565b1980831691505092915050565b6000610d458383610d1b565b9150826002028217905092915050565b610d5e826107d0565b67ffffffffffffffff811115610d7757610d7661065c565b5b610d818254610aa0565b610d8c828285610cc8565b600060209050601f831160018114610dbf5760008415610dad578287015190505b610db78582610d39565b865550610e1f565b601f198416610dcd86610ba9565b60005b82811015610df557848901518255600182019150602085019450602081019050610dd0565b86831015610e125784890151610e0e601f891682610d1b565b8355505b6001600288020188555050505b505050505050565b60006060820190508181036000830152610e418186610816565b90508181036020830152610e558185610816565b9050610e64604083018461089a565b94935050505056fea26469706673582212203c9e2b27acd354b8c4eba298d87b22fae89529294df6d2c5101a82e55ab8e83764736f6c63430008140033",
  "linkReferences": {},
  "deployedLinkReferences": {}
}