{
  "_format": "hh-sol-artifact-1",
  "contractName": "SecondDAO",
  "sourceName": "contracts/SecondDAO.sol",
  "abi": [
    {
      "inputs": [
        {
          "internalType": "address[]",
          "name": "initialVoters",
          "type": "address[]"
        }
      ],
      "stateMutability": "nonpayable",
      "type": "constructor"
    },
    {
      "anonymous": false,
      "inputs": [
        {
          "indexed": false,
          "internalType": "string",
          "name": "tradeId",
          "type": "string"
        },
        {
          "indexed": false,
          "internalType": "bool",
          "name": "passed",
          "type": "bool"
        }
      ],
      "name": "VoteFinalized",
      "type": "event"
    },
    {
      "anonymous": false,
      "inputs": [
        {
          "indexed": false,
          "internalType": "string",
          "name": "tradeId",
          "type": "string"
        },
        {
          "indexed": false,
          "internalType": "address",
          "name": "voter",
          "type": "address"
        },
        {
          "indexed": false,
          "internalType": "bool",
          "name": "approved",
          "type": "bool"
        }
      ],
      "name": "Voted",
      "type": "event"
    },
    {
      "anonymous": false,
      "inputs": [
        {
          "indexed": false,
          "internalType": "address",
          "name": "voter",
          "type": "address"
        }
      ],
      "name": "VoterAdded",
      "type": "event"
    },
    {
      "anonymous": false,
      "inputs": [
        {
          "indexed": false,
          "internalType": "address",
          "name": "voter",
          "type": "address"
        }
      ],
      "name": "VoterRemoved",
      "type": "event"
    },
    {
      "inputs": [
        {
          "internalType": "address",
          "name": "voter",
          "type": "address"
        }
      ],
      "name": "addVoter",
      "outputs": [],
      "stateMutability": "nonpayable",
      "type": "function"
    },
    {
      "inputs": [],
      "name": "admin",
      "outputs": [
        {
          "internalType": "address",
          "name": "",
          "type": "address"
        }
      ],
      "stateMutability": "view",
      "type": "function"
    },
    {
      "inputs": [
        {
          "internalType": "address",
          "name": "",
          "type": "address"
        }
      ],
      "name": "allowedVoters",
      "outputs": [
        {
          "internalType": "bool",
          "name": "",
          "type": "bool"
        }
      ],
      "stateMutability": "view",
      "type": "function"
    },
    {
      "inputs": [
        {
          "internalType": "string",
          "name": "tradeId",
          "type": "string"
        }
      ],
      "name": "finalizeVote",
      "outputs": [],
      "stateMutability": "nonpayable",
      "type": "function"
    },
    {
      "inputs": [
        {
          "internalType": "string",
          "name": "tradeId",
          "type": "string"
        }
      ],
      "name": "getVoteResult",
      "outputs": [
        {
          "internalType": "uint256",
          "name": "yesVotes",
          "type": "uint256"
        },
        {
          "internalType": "uint256",
          "name": "noVotes",
          "type": "uint256"
        },
        {
          "internalType": "bool",
          "name": "processed",
          "type": "bool"
        },
        {
          "internalType": "bool",
          "name": "passed",
          "type": "bool"
        }
      ],
      "stateMutability": "view",
      "type": "function"
    },
    {
      "inputs": [
        {
          "internalType": "string",
          "name": "tradeId",
          "type": "string"
        },
        {
          "internalType": "address",
          "name": "voter",
          "type": "address"
        }
      ],
      "name": "getVoterVote",
      "outputs": [
        {
          "internalType": "bool",
          "name": "voted",
          "type": "bool"
        },
        {
          "internalType": "bool",
          "name": "approved",
          "type": "bool"
        }
      ],
      "stateMutability": "view",
      "type": "function"
    },
    {
      "inputs": [],
      "name": "getVotersList",
      "outputs": [
        {
          "internalType": "address[]",
          "name": "",
          "type": "address[]"
        }
      ],
      "stateMutability": "view",
      "type": "function"
    },
    {
      "inputs": [
        {
          "internalType": "address",
          "name": "voter",
          "type": "address"
        }
      ],
      "name": "removeVoter",
      "outputs": [],
      "stateMutability": "nonpayable",
      "type": "function"
    },
    {
      "inputs": [
        {
          "internalType": "string",
          "name": "tradeId",
          "type": "string"
        },
        {
          "internalType": "bool",
          "name": "approve",
          "type": "bool"
        }
      ],
      "name": "vote",
      "outputs": [],
      "stateMutability": "nonpayable",
      "type": "function"
    },
    {
      "inputs": [
        {
          "internalType": "uint256",
          "name": "",
          "type": "uint256"
        }
      ],
      "name": "votersList",
      "outputs": [
        {
          "internalType": "address",
          "name": "",
          "type": "address"
        }
      ],
      "stateMutability": "view",
      "type": "function"
    }
  ],
  "bytecode": "0x60806040523480156200001157600080fd5b5060405162002255380380620022558339818101604052810190620000379190620003da565b336000806101000a81548173ffffffffffffffffffffffffffffffffffffffff021916908373ffffffffffffffffffffffffffffffffffffffff16021790555060005b8151811015620001e45760018060008484815181106200009f576200009e6200042b565b5b602002602001015173ffffffffffffffffffffffffffffffffffffffff1673ffffffffffffffffffffffffffffffffffffffff16815260200190815260200160002060006101000a81548160ff021916908315150217905550600282828151811062000110576200010f6200042b565b5b60200260200101519080600181540180825580915050600190039060005260206000200160009091909190916101000a81548173ffffffffffffffffffffffffffffffffffffffff021916908373ffffffffffffffffffffffffffffffffffffffff1602179055507fa636f4a11e2d3ba7f89d042ecb0a6b886716e98cd49d8fd876ee0f73bced42b8828281518110620001af57620001ae6200042b565b5b6020026020010151604051620001c691906200046b565b60405180910390a18080620001db90620004c1565b9150506200007a565b50506200050e565b6000604051905090565b600080fd5b600080fd5b600080fd5b6000601f19601f8301169050919050565b7f4e487b7100000000000000000000000000000000000000000000000000000000600052604160045260246000fd5b620002508262000205565b810181811067ffffffffffffffff8211171562000272576200027162000216565b5b80604052505050565b600062000287620001ec565b905062000295828262000245565b919050565b600067ffffffffffffffff821115620002b857620002b762000216565b5b602082029050602081019050919050565b600080fd5b600073ffffffffffffffffffffffffffffffffffffffff82169050919050565b6000620002fb82620002ce565b9050919050565b6200030d81620002ee565b81146200031957600080fd5b50565b6000815190506200032d8162000302565b92915050565b60006200034a62000344846200029a565b6200027b565b9050808382526020820190506020840283018581111562000370576200036f620002c9565b5b835b818110156200039d57806200038888826200031c565b84526020840193505060208101905062000372565b5050509392505050565b600082601f830112620003bf57620003be62000200565b5b8151620003d184826020860162000333565b91505092915050565b600060208284031215620003f357620003f2620001f6565b5b600082015167ffffffffffffffff811115620004145762000413620001fb565b5b6200042284828501620003a7565b91505092915050565b7f4e487b7100000000000000000000000000000000000000000000000000000000600052603260045260246000fd5b6200046581620002ee565b82525050565b60006020820190506200048260008301846200045a565b92915050565b7f4e487b7100000000000000000000000000000000000000000000000000000000600052601160045260246000fd5b6000819050919050565b6000620004ce82620004b7565b91507fffffffffffffffffffffffffffffffffffffffffffffffffffffffffffffffff820362000503576200050262000488565b5b600182019050919050565b611d37806200051e6000396000f3fe608060405234801561001057600080fd5b506004361061009e5760003560e01c806386c1ff681161006657806386c1ff681461016e578063a3482f521461018a578063bc86f385146101bb578063f4ab9adf146101d9578063f851a440146101f55761009e565b8063255adfd4146100a357806327d3410c146100d357806339f6ccc7146100ef5780634947ba901461010b57806372ce73ab1461013e575b600080fd5b6100bd60048036038101906100b891906110ad565b610213565b6040516100ca91906110f5565b60405180910390f35b6100ed60048036038101906100e891906111a1565b610233565b005b61010960048036038101906101049190611201565b61074f565b005b61012560048036038101906101209190611201565b610a30565b6040516101359493929190611267565b60405180910390f35b610158600480360381019061015391906112d8565b610ac7565b6040516101659190611314565b60405180910390f35b610188600480360381019061018391906110ad565b610b06565b005b6101a4600480360381019061019f919061132f565b610cb2565b6040516101b292919061138f565b60405180910390f35b6101c3610d84565b6040516101d09190611476565b60405180910390f35b6101f360048036038101906101ee91906110ad565b610e12565b005b6101fd611021565b60405161020a9190611314565b60405180910390f35b60016020528060005260406000206000915054906101000a900460ff1681565b600160003373ffffffffffffffffffffffffffffffffffffffff1673ffffffffffffffffffffffffffffffffffffffff16815260200190815260200160002060009054906101000a900460ff166102bf576040517f08c379a00000000000000000000000000000000000000000000000000000000081526004016102b6906114f5565b60405180910390fd5b6000600384846040516102d3929190611554565b908152602001604051809103902090508060030160003373ffffffffffffffffffffffffffffffffffffffff1673ffffffffffffffffffffffffffffffffffffffff16815260200190815260200160002060009054906101000a900460ff1615610372576040517f08c379a0000000000000000000000000000000000000000000000000000000008152600401610369906115b9565b60405180910390fd5b8060050160009054906101000a900460ff16156103c4576040517f08c379a00000000000000000000000000000000000000000000000000000000081526004016103bb90611625565b60405180910390fd5b60008160000180546103d590611674565b9050036103f15783838260000191826103ef92919061188b565b505b60018160030160003373ffffffffffffffffffffffffffffffffffffffff1673ffffffffffffffffffffffffffffffffffffffff16815260200190815260200160002060006101000a81548160ff021916908315150217905550818160040160003373ffffffffffffffffffffffffffffffffffffffff1673ffffffffffffffffffffffffffffffffffffffff16815260200190815260200160002060006101000a81548160ff02191690831515021790555081156104c9578060010160008154809291906104bf9061198a565b91905055506104e4565b8060020160008154809291906104de9061198a565b91905055505b7fc101ce67760240d4c7f3907ec548dde27cda723f528e2c55d6f08055aae2b793848433856040516105199493929190611a10565b60405180910390a16000805b6002805490508110156105e457600160006002838154811061054a57610549611a50565b5b9060005260206000200160009054906101000a900473ffffffffffffffffffffffffffffffffffffffff1673ffffffffffffffffffffffffffffffffffffffff1673ffffffffffffffffffffffffffffffffffffffff16815260200190815260200160002060009054906101000a900460ff16156105d15781806105cd9061198a565b9250505b80806105dc9061198a565b915050610525565b506000826002015483600101546105fb9190611a7f565b90508260050160009054906101000a900460ff1661074757600282148015610627575060028360010154145b156106a75760018360050160006101000a81548160ff02191690831515021790555060018360050160016101000a81548160ff0219169083151502179055507f99566f72d34805e2ed9ebef74a05ae6cf3c58cf2a533187ce27f70387332aac68686600160405161069a93929190611ab3565b60405180910390a1610746565b6002821180156106b657508181145b80156106c9575082600201548360010154115b156107455760018360050160006101000a81548160ff02191690831515021790555060018360050160016101000a81548160ff0219169083151502179055507f99566f72d34805e2ed9ebef74a05ae6cf3c58cf2a533187ce27f70387332aac68686600160405161073c93929190611ab3565b60405180910390a15b5b5b505050505050565b60008054906101000a900473ffffffffffffffffffffffffffffffffffffffff1673ffffffffffffffffffffffffffffffffffffffff163373ffffffffffffffffffffffffffffffffffffffff16146107dd576040517f08c379a00000000000000000000000000000000000000000000000000000000081526004016107d490611b31565b60405180910390fd5b6000600383836040516107f1929190611554565b908152602001604051809103902090508060050160009054906101000a900460ff1615610853576040517f08c379a000000000000000000000000000000000000000000000000000000000815260040161084a90611b9d565b60405180910390fd5b600081600001805461086490611674565b9050036108a6576040517f08c379a000000000000000000000000000000000000000000000000000000000815260040161089d90611c09565b60405180910390fd5b60018160050160006101000a81548160ff0219169083151502179055506000805b6002805490508110156109865760016000600283815481106108ec576108eb611a50565b5b9060005260206000200160009054906101000a900473ffffffffffffffffffffffffffffffffffffffff1673ffffffffffffffffffffffffffffffffffffffff1673ffffffffffffffffffffffffffffffffffffffff16815260200190815260200160002060009054906101000a900460ff161561097357818061096f9061198a565b9250505b808061097e9061198a565b9150506108c7565b50600281036109b75760028260010154148260050160016101000a81548160ff0219169083151502179055506109de565b81600201548260010154118260050160016101000a81548160ff0219169083151502179055505b7f99566f72d34805e2ed9ebef74a05ae6cf3c58cf2a533187ce27f70387332aac684848460050160019054906101000a900460ff16604051610a2293929190611ab3565b60405180910390a150505050565b600080600080600060038787604051610a4a929190611554565b908152602001604051809103902090506000816000018054610a6b90611674565b905003610a8657600080600080945094509450945050610abe565b806001015481600201548260050160009054906101000a900460ff168360050160019054906101000a900460ff169450945094509450505b92959194509250565b60028181548110610ad757600080fd5b906000526020600020016000915054906101000a900473ffffffffffffffffffffffffffffffffffffffff1681565b60008054906101000a900473ffffffffffffffffffffffffffffffffffffffff1673ffffffffffffffffffffffffffffffffffffffff163373ffffffffffffffffffffffffffffffffffffffff1614610b94576040517f08c379a0000000000000000000000000000000000000000000000000000000008152600401610b8b90611b31565b60405180910390fd5b600160008273ffffffffffffffffffffffffffffffffffffffff1673ffffffffffffffffffffffffffffffffffffffff16815260200190815260200160002060009054906101000a900460ff16610c20576040517f08c379a0000000000000000000000000000000000000000000000000000000008152600401610c1790611c75565b60405180910390fd5b6000600160008373ffffffffffffffffffffffffffffffffffffffff1673ffffffffffffffffffffffffffffffffffffffff16815260200190815260200160002060006101000a81548160ff0219169083151502179055507fa14a79af012d1756818f9bd59ccfc9ad185a71df86b9392d9059d9e6faf6d64481604051610ca79190611314565b60405180910390a150565b600080600060038686604051610cc9929190611554565b908152602001604051809103902090508060030160008573ffffffffffffffffffffffffffffffffffffffff1673ffffffffffffffffffffffffffffffffffffffff16815260200190815260200160002060009054906101000a900460ff1692508060040160008573ffffffffffffffffffffffffffffffffffffffff1673ffffffffffffffffffffffffffffffffffffffff16815260200190815260200160002060009054906101000a900460ff16915050935093915050565b60606002805480602002602001604051908101604052809291908181526020018280548015610e0857602002820191906000526020600020905b8160009054906101000a900473ffffffffffffffffffffffffffffffffffffffff1673ffffffffffffffffffffffffffffffffffffffff1681526020019060010190808311610dbe575b5050505050905090565b60008054906101000a900473ffffffffffffffffffffffffffffffffffffffff1673ffffffffffffffffffffffffffffffffffffffff163373ffffffffffffffffffffffffffffffffffffffff1614610ea0576040517f08c379a0000000000000000000000000000000000000000000000000000000008152600401610e9790611b31565b60405180910390fd5b600160008273ffffffffffffffffffffffffffffffffffffffff1673ffffffffffffffffffffffffffffffffffffffff16815260200190815260200160002060009054906101000a900460ff1615610f2d576040517f08c379a0000000000000000000000000000000000000000000000000000000008152600401610f2490611ce1565b60405180910390fd5b60018060008373ffffffffffffffffffffffffffffffffffffffff1673ffffffffffffffffffffffffffffffffffffffff16815260200190815260200160002060006101000a81548160ff0219169083151502179055506002819080600181540180825580915050600190039060005260206000200160009091909190916101000a81548173ffffffffffffffffffffffffffffffffffffffff021916908373ffffffffffffffffffffffffffffffffffffffff1602179055507fa636f4a11e2d3ba7f89d042ecb0a6b886716e98cd49d8fd876ee0f73bced42b8816040516110169190611314565b60405180910390a150565b60008054906101000a900473ffffffffffffffffffffffffffffffffffffffff1681565b600080fd5b600080fd5b600073ffffffffffffffffffffffffffffffffffffffff82169050919050565b600061107a8261104f565b9050919050565b61108a8161106f565b811461109557600080fd5b50565b6000813590506110a781611081565b92915050565b6000602082840312156110c3576110c2611045565b5b60006110d184828501611098565b91505092915050565b60008115159050919050565b6110ef816110da565b82525050565b600060208201905061110a60008301846110e6565b92915050565b600080fd5b600080fd5b600080fd5b60008083601f84011261113557611134611110565b5b8235905067ffffffffffffffff81111561115257611151611115565b5b60208301915083600182028301111561116e5761116d61111a565b5b9250929050565b61117e816110da565b811461118957600080fd5b50565b60008135905061119b81611175565b92915050565b6000806000604084860312156111ba576111b9611045565b5b600084013567ffffffffffffffff8111156111d8576111d761104a565b5b6111e48682870161111f565b935093505060206111f78682870161118c565b9150509250925092565b6000806020838503121561121857611217611045565b5b600083013567ffffffffffffffff8111156112365761123561104a565b5b6112428582860161111f565b92509250509250929050565b6000819050919050565b6112618161124e565b82525050565b600060808201905061127c6000830187611258565b6112896020830186611258565b61129660408301856110e6565b6112a360608301846110e6565b95945050505050565b6112b58161124e565b81146112c057600080fd5b50565b6000813590506112d2816112ac565b92915050565b6000602082840312156112ee576112ed611045565b5b60006112fc848285016112c3565b91505092915050565b61130e8161106f565b82525050565b60006020820190506113296000830184611305565b92915050565b60008060006040848603121561134857611347611045565b5b600084013567ffffffffffffffff8111156113665761136561104a565b5b6113728682870161111f565b9350935050602061138586828701611098565b9150509250925092565b60006040820190506113a460008301856110e6565b6113b160208301846110e6565b9392505050565b600081519050919050565b600082825260208201905092915050565b6000819050602082019050919050565b6113ed8161106f565b82525050565b60006113ff83836113e4565b60208301905092915050565b6000602082019050919050565b6000611423826113b8565b61142d81856113c3565b9350611438836113d4565b8060005b8381101561146957815161145088826113f3565b975061145b8361140b565b92505060018101905061143c565b5085935050505092915050565b600060208201905081810360008301526114908184611418565b905092915050565b600082825260208201905092915050565b7f4e6f7420617574686f72697a656420766f746572000000000000000000000000600082015250565b60006114df601483611498565b91506114ea826114a9565b602082019050919050565b6000602082019050818103600083015261150e816114d2565b9050919050565b600081905092915050565b82818337600083830152505050565b600061153b8385611515565b9350611548838584611520565b82840190509392505050565b600061156182848661152f565b91508190509392505050565b7f416c726561647920766f74656400000000000000000000000000000000000000600082015250565b60006115a3600d83611498565b91506115ae8261156d565b602082019050919050565b600060208201905081810360008301526115d281611596565b9050919050565b7f566f746520616c72656164792066696e616c697a656400000000000000000000600082015250565b600061160f601683611498565b915061161a826115d9565b602082019050919050565b6000602082019050818103600083015261163e81611602565b9050919050565b7f4e487b7100000000000000000000000000000000000000000000000000000000600052602260045260246000fd5b6000600282049050600182168061168c57607f821691505b60208210810361169f5761169e611645565b5b50919050565b600082905092915050565b7f4e487b7100000000000000000000000000000000000000000000000000000000600052604160045260246000fd5b60008190508160005260206000209050919050565b60006020601f8301049050919050565b600082821b905092915050565b6000600883026117417fffffffffffffffffffffffffffffffffffffffffffffffffffffffffffffffff82611704565b61174b8683611704565b95508019841693508086168417925050509392505050565b6000819050919050565b600061178861178361177e8461124e565b611763565b61124e565b9050919050565b6000819050919050565b6117a28361176d565b6117b66117ae8261178f565b848454611711565b825550505050565b600090565b6117cb6117be565b6117d6818484611799565b505050565b5b818110156117fa576117ef6000826117c3565b6001810190506117dc565b5050565b601f82111561183f57611810816116df565b611819846116f4565b81016020851015611828578190505b61183c611834856116f4565b8301826117db565b50505b505050565b600082821c905092915050565b600061186260001984600802611844565b1980831691505092915050565b600061187b8383611851565b9150826002028217905092915050565b61189583836116a5565b67ffffffffffffffff8111156118ae576118ad6116b0565b5b6118b88254611674565b6118c38282856117fe565b6000601f8311600181146118f257600084156118e0578287013590505b6118ea858261186f565b865550611952565b601f198416611900866116df565b60005b8281101561192857848901358255600182019150602085019450602081019050611903565b868310156119455784890135611941601f891682611851565b8355505b6001600288020188555050505b50505050505050565b7f4e487b7100000000000000000000000000000000000000000000000000000000600052601160045260246000fd5b60006119958261124e565b91507fffffffffffffffffffffffffffffffffffffffffffffffffffffffffffffffff82036119c7576119c661195b565b5b600182019050919050565b6000601f19601f8301169050919050565b60006119ef8385611498565b93506119fc838584611520565b611a05836119d2565b840190509392505050565b60006060820190508181036000830152611a2b8186886119e3565b9050611a3a6020830185611305565b611a4760408301846110e6565b95945050505050565b7f4e487b7100000000000000000000000000000000000000000000000000000000600052603260045260246000fd5b6000611a8a8261124e565b9150611a958361124e565b9250828201905080821115611aad57611aac61195b565b5b92915050565b60006040820190508181036000830152611ace8185876119e3565b9050611add60208301846110e6565b949350505050565b7f4e6f742061646d696e0000000000000000000000000000000000000000000000600082015250565b6000611b1b600983611498565b9150611b2682611ae5565b602082019050919050565b60006020820190508181036000830152611b4a81611b0e565b9050919050565b7f416c72656164792066696e616c697a6564000000000000000000000000000000600082015250565b6000611b87601183611498565b9150611b9282611b51565b602082019050919050565b60006020820190508181036000830152611bb681611b7a565b9050919050565b7f4e6f20766f746573206361737400000000000000000000000000000000000000600082015250565b6000611bf3600d83611498565b9150611bfe82611bbd565b602082019050919050565b60006020820190508181036000830152611c2281611be6565b9050919050565b7f4e6f74206120766f746572000000000000000000000000000000000000000000600082015250565b6000611c5f600b83611498565b9150611c6a82611c29565b602082019050919050565b60006020820190508181036000830152611c8e81611c52565b9050919050565b7f416c7265616479206120766f7465720000000000000000000000000000000000600082015250565b6000611ccb600f83611498565b9150611cd682611c95565b602082019050919050565b60006020820190508181036000830152611cfa81611cbe565b905091905056fea264697066735822122049725e7db351308cc96ac4f5763bf0336b10e54400578df011502de83aef1dac64736f6c63430008140033",
  "linkReferences": {},
  "deployedLinkReferences": {}
}