{
  "_format": "hh-sol-artifact-1",
  "contractName": "SecondDAO",
  "sourceName": "contracts/SecondDAO.sol",
  "abi": [
    {
      "inputs": [
        {
          "internalType": "address[]",
          "name": "initialVoters",
          "type": "address[]"
        }
      ],
      "stateMutability": "nonpayable",
      "type": "constructor"
    },
    {
      "anonymous": false,
      "inputs": [
        {
          "indexed": false,
          "internalType": "string",
          "name": "tradeId",
          "type": "string"
        },
        {
          "indexed": false,
          "internalType": "bool",
          "name": "passed",
          "type": "bool"
        }
      ],
      "name": "VoteFinalized",
      "type": "event"
    },
    {
      "anonymous": false,
      "inputs": [
        {
          "indexed": false,
          "internalType": "string",
          "name": "tradeId",
          "type": "string"
        },
        {
          "indexed": false,
          "internalType": "address",
          "name": "voter",
          "type": "address"
        },
        {
          "indexed": false,
          "internalType": "bool",
          "name": "approved",
          "type": "bool"
        }
      ],
      "name": "Voted",
      "type": "event"
    },
    {
      "anonymous": false,
      "inputs": [
        {
          "indexed": false,
          "internalType": "address",
          "name": "voter",
          "type": "address"
        }
      ],
      "name": "VoterAdded",
      "type": "event"
    },
    {
      "anonymous": false,
      "inputs": [
        {
          "indexed": false,
          "internalType": "address",
          "name": "voter",
          "type": "address"
        }
      ],
      "name": "VoterRemoved",
      "type": "event"
    },
    {
      "inputs": [
        {
          "internalType": "address",
          "name": "voter",
          "type": "address"
        }
      ],
      "name": "addVoter",
      "outputs": [],
      "stateMutability": "nonpayable",
      "type": "function"
    },
    {
      "inputs": [],
      "name": "admin",
      "outputs": [
        {
          "internalType": "address",
          "name": "",
          "type": "address"
        }
      ],
      "stateMutability": "view",
      "type": "function"
    },
    {
      "inputs": [
        {
          "internalType": "address",
          "name": "",
          "type": "address"
        }
      ],
      "name": "allowedVoters",
      "outputs": [
        {
          "internalType": "bool",
          "name": "",
          "type": "bool"
        }
      ],
      "stateMutability": "view",
      "type": "function"
    },
    {
      "inputs": [
        {
          "internalType": "string",
          "name": "tradeId",
          "type": "string"
        }
      ],
      "name": "finalizeVote",
      "outputs": [],
      "stateMutability": "nonpayable",
      "type": "function"
    },
    {
      "inputs": [
        {
          "internalType": "string",
          "name": "tradeId",
          "type": "string"
        }
      ],
      "name": "getVoteResult",
      "outputs": [
        {
          "internalType": "uint256",
          "name": "yesVotes",
          "type": "uint256"
        },
        {
          "internalType": "uint256",
          "name": "noVotes",
          "type": "uint256"
        },
        {
          "internalType": "bool",
          "name": "processed",
          "type": "bool"
        },
        {
          "internalType": "bool",
          "name": "passed",
          "type": "bool"
        }
      ],
      "stateMutability": "view",
      "type": "function"
    },
    {
      "inputs": [
        {
          "internalType": "address",
          "name": "voter",
          "type": "address"
        }
      ],
      "name": "removeVoter",
      "outputs": [],
      "stateMutability": "nonpayable",
      "type": "function"
    },
    {
      "inputs": [
        {
          "internalType": "string",
          "name": "tradeId",
          "type": "string"
        },
        {
          "internalType": "bool",
          "name": "approve",
          "type": "bool"
        }
      ],
      "name": "vote",
      "outputs": [],
      "stateMutability": "nonpayable",
      "type": "function"
    }
  ],
  "bytecode": "0x60806040523480156200001157600080fd5b50604051620019973803806200199783398181016040528101906200003791906200035a565b336000806101000a81548173ffffffffffffffffffffffffffffffffffffffff021916908373ffffffffffffffffffffffffffffffffffffffff16021790555060005b8151811015620001645760018060008484815181106200009f576200009e620003ab565b5b602002602001015173ffffffffffffffffffffffffffffffffffffffff1673ffffffffffffffffffffffffffffffffffffffff16815260200190815260200160002060006101000a81548160ff0219169083151502179055507fa636f4a11e2d3ba7f89d042ecb0a6b886716e98cd49d8fd876ee0f73bced42b88282815181106200012f576200012e620003ab565b5b6020026020010151604051620001469190620003eb565b60405180910390a180806200015b9062000441565b9150506200007a565b50506200048e565b6000604051905090565b600080fd5b600080fd5b600080fd5b6000601f19601f8301169050919050565b7f4e487b7100000000000000000000000000000000000000000000000000000000600052604160045260246000fd5b620001d08262000185565b810181811067ffffffffffffffff82111715620001f257620001f162000196565b5b80604052505050565b6000620002076200016c565b9050620002158282620001c5565b919050565b600067ffffffffffffffff82111562000238576200023762000196565b5b602082029050602081019050919050565b600080fd5b600073ffffffffffffffffffffffffffffffffffffffff82169050919050565b60006200027b826200024e565b9050919050565b6200028d816200026e565b81146200029957600080fd5b50565b600081519050620002ad8162000282565b92915050565b6000620002ca620002c4846200021a565b620001fb565b90508083825260208201905060208402830185811115620002f057620002ef62000249565b5b835b818110156200031d57806200030888826200029c565b845260208401935050602081019050620002f2565b5050509392505050565b600082601f8301126200033f576200033e62000180565b5b815162000351848260208601620002b3565b91505092915050565b60006020828403121562000373576200037262000176565b5b600082015167ffffffffffffffff8111156200039457620003936200017b565b5b620003a28482850162000327565b91505092915050565b7f4e487b7100000000000000000000000000000000000000000000000000000000600052603260045260246000fd5b620003e5816200026e565b82525050565b6000602082019050620004026000830184620003da565b92915050565b7f4e487b7100000000000000000000000000000000000000000000000000000000600052601160045260246000fd5b6000819050919050565b60006200044e8262000437565b91507fffffffffffffffffffffffffffffffffffffffffffffffffffffffffffffffff820362000483576200048262000408565b5b600182019050919050565b6114f9806200049e6000396000f3fe608060405234801561001057600080fd5b506004361061007d5760003560e01c80634947ba901161005b5780634947ba90146100ea57806386c1ff681461011d578063f4ab9adf14610139578063f851a440146101555761007d565b8063255adfd41461008257806327d3410c146100b257806339f6ccc7146100ce575b600080fd5b61009c60048036038101906100979190610a94565b610173565b6040516100a99190610adc565b60405180910390f35b6100cc60048036038101906100c79190610b88565b610193565b005b6100e860048036038101906100e39190610be8565b61042e565b005b61010460048036038101906100ff9190610be8565b610619565b6040516101149493929190610c4e565b60405180910390f35b61013760048036038101906101329190610a94565b6106b0565b005b610153600480360381019061014e9190610a94565b61085c565b005b61015d610a08565b60405161016a9190610ca2565b60405180910390f35b60016020528060005260406000206000915054906101000a900460ff1681565b600160003373ffffffffffffffffffffffffffffffffffffffff1673ffffffffffffffffffffffffffffffffffffffff16815260200190815260200160002060009054906101000a900460ff1661021f576040517f08c379a000000000000000000000000000000000000000000000000000000000815260040161021690610d1a565b60405180910390fd5b600060028484604051610233929190610d79565b908152602001604051809103902090508060030160003373ffffffffffffffffffffffffffffffffffffffff1673ffffffffffffffffffffffffffffffffffffffff16815260200190815260200160002060009054906101000a900460ff16156102d2576040517f08c379a00000000000000000000000000000000000000000000000000000000081526004016102c990610dde565b60405180910390fd5b8060040160009054906101000a900460ff1615610324576040517f08c379a000000000000000000000000000000000000000000000000000000000815260040161031b90610e4a565b60405180910390fd5b600081600001805461033590610e99565b90500361035157838382600001918261034f9291906110b0565b505b60018160030160003373ffffffffffffffffffffffffffffffffffffffff1673ffffffffffffffffffffffffffffffffffffffff16815260200190815260200160002060006101000a81548160ff02191690831515021790555081156103d0578060010160008154809291906103c6906111af565b91905055506103eb565b8060020160008154809291906103e5906111af565b91905055505b7fc101ce67760240d4c7f3907ec548dde27cda723f528e2c55d6f08055aae2b793848433856040516104209493929190611235565b60405180910390a150505050565b60008054906101000a900473ffffffffffffffffffffffffffffffffffffffff1673ffffffffffffffffffffffffffffffffffffffff163373ffffffffffffffffffffffffffffffffffffffff16146104bc576040517f08c379a00000000000000000000000000000000000000000000000000000000081526004016104b3906112c1565b60405180910390fd5b6000600283836040516104d0929190610d79565b908152602001604051809103902090508060040160009054906101000a900460ff1615610532576040517f08c379a00000000000000000000000000000000000000000000000000000000081526004016105299061132d565b60405180910390fd5b600081600001805461054390610e99565b905003610585576040517f08c379a000000000000000000000000000000000000000000000000000000000815260040161057c90611399565b60405180910390fd5b60018160040160006101000a81548160ff02191690831515021790555080600201548160010154118160040160016101000a81548160ff0219169083151502179055507f99566f72d34805e2ed9ebef74a05ae6cf3c58cf2a533187ce27f70387332aac683838360040160019054906101000a900460ff1660405161060c939291906113b9565b60405180910390a1505050565b600080600080600060028787604051610633929190610d79565b90815260200160405180910390209050600081600001805461065490610e99565b90500361066f576000806000809450945094509450506106a7565b806001015481600201548260040160009054906101000a900460ff168360040160019054906101000a900460ff169450945094509450505b92959194509250565b60008054906101000a900473ffffffffffffffffffffffffffffffffffffffff1673ffffffffffffffffffffffffffffffffffffffff163373ffffffffffffffffffffffffffffffffffffffff161461073e576040517f08c379a0000000000000000000000000000000000000000000000000000000008152600401610735906112c1565b60405180910390fd5b600160008273ffffffffffffffffffffffffffffffffffffffff1673ffffffffffffffffffffffffffffffffffffffff16815260200190815260200160002060009054906101000a900460ff166107ca576040517f08c379a00000000000000000000000000000000000000000000000000000000081526004016107c190611437565b60405180910390fd5b6000600160008373ffffffffffffffffffffffffffffffffffffffff1673ffffffffffffffffffffffffffffffffffffffff16815260200190815260200160002060006101000a81548160ff0219169083151502179055507fa14a79af012d1756818f9bd59ccfc9ad185a71df86b9392d9059d9e6faf6d644816040516108519190610ca2565b60405180910390a150565b60008054906101000a900473ffffffffffffffffffffffffffffffffffffffff1673ffffffffffffffffffffffffffffffffffffffff163373ffffffffffffffffffffffffffffffffffffffff16146108ea576040517f08c379a00000000000000000000000000000000000000000000000000000000081526004016108e1906112c1565b60405180910390fd5b600160008273ffffffffffffffffffffffffffffffffffffffff1673ffffffffffffffffffffffffffffffffffffffff16815260200190815260200160002060009054906101000a900460ff1615610977576040517f08c379a000000000000000000000000000000000000000000000000000000000815260040161096e906114a3565b60405180910390fd5b60018060008373ffffffffffffffffffffffffffffffffffffffff1673ffffffffffffffffffffffffffffffffffffffff16815260200190815260200160002060006101000a81548160ff0219169083151502179055507fa636f4a11e2d3ba7f89d042ecb0a6b886716e98cd49d8fd876ee0f73bced42b8816040516109fd9190610ca2565b60405180910390a150565b60008054906101000a900473ffffffffffffffffffffffffffffffffffffffff1681565b600080fd5b600080fd5b600073ffffffffffffffffffffffffffffffffffffffff82169050919050565b6000610a6182610a36565b9050919050565b610a7181610a56565b8114610a7c57600080fd5b50565b600081359050610a8e81610a68565b92915050565b600060208284031215610aaa57610aa9610a2c565b5b6000610ab884828501610a7f565b91505092915050565b60008115159050919050565b610ad681610ac1565b82525050565b6000602082019050610af16000830184610acd565b92915050565b600080fd5b600080fd5b600080fd5b60008083601f840112610b1c57610b1b610af7565b5b8235905067ffffffffffffffff811115610b3957610b38610afc565b5b602083019150836001820283011115610b5557610b54610b01565b5b9250929050565b610b6581610ac1565b8114610b7057600080fd5b50565b600081359050610b8281610b5c565b92915050565b600080600060408486031215610ba157610ba0610a2c565b5b600084013567ffffffffffffffff811115610bbf57610bbe610a31565b5b610bcb86828701610b06565b93509350506020610bde86828701610b73565b9150509250925092565b60008060208385031215610bff57610bfe610a2c565b5b600083013567ffffffffffffffff811115610c1d57610c1c610a31565b5b610c2985828601610b06565b92509250509250929050565b6000819050919050565b610c4881610c35565b82525050565b6000608082019050610c636000830187610c3f565b610c706020830186610c3f565b610c7d6040830185610acd565b610c8a6060830184610acd565b95945050505050565b610c9c81610a56565b82525050565b6000602082019050610cb76000830184610c93565b92915050565b600082825260208201905092915050565b7f4e6f7420617574686f72697a656420766f746572000000000000000000000000600082015250565b6000610d04601483610cbd565b9150610d0f82610cce565b602082019050919050565b60006020820190508181036000830152610d3381610cf7565b9050919050565b600081905092915050565b82818337600083830152505050565b6000610d608385610d3a565b9350610d6d838584610d45565b82840190509392505050565b6000610d86828486610d54565b91508190509392505050565b7f416c726561647920766f74656400000000000000000000000000000000000000600082015250565b6000610dc8600d83610cbd565b9150610dd382610d92565b602082019050919050565b60006020820190508181036000830152610df781610dbb565b9050919050565b7f566f746520616c72656164792066696e616c697a656400000000000000000000600082015250565b6000610e34601683610cbd565b9150610e3f82610dfe565b602082019050919050565b60006020820190508181036000830152610e6381610e27565b9050919050565b7f4e487b7100000000000000000000000000000000000000000000000000000000600052602260045260246000fd5b60006002820490506001821680610eb157607f821691505b602082108103610ec457610ec3610e6a565b5b50919050565b600082905092915050565b7f4e487b7100000000000000000000000000000000000000000000000000000000600052604160045260246000fd5b60008190508160005260206000209050919050565b60006020601f8301049050919050565b600082821b905092915050565b600060088302610f667fffffffffffffffffffffffffffffffffffffffffffffffffffffffffffffffff82610f29565b610f708683610f29565b95508019841693508086168417925050509392505050565b6000819050919050565b6000610fad610fa8610fa384610c35565b610f88565b610c35565b9050919050565b6000819050919050565b610fc783610f92565b610fdb610fd382610fb4565b848454610f36565b825550505050565b600090565b610ff0610fe3565b610ffb818484610fbe565b505050565b5b8181101561101f57611014600082610fe8565b600181019050611001565b5050565b601f8211156110645761103581610f04565b61103e84610f19565b8101602085101561104d578190505b61106161105985610f19565b830182611000565b50505b505050565b600082821c905092915050565b600061108760001984600802611069565b1980831691505092915050565b60006110a08383611076565b9150826002028217905092915050565b6110ba8383610eca565b67ffffffffffffffff8111156110d3576110d2610ed5565b5b6110dd8254610e99565b6110e8828285611023565b6000601f8311600181146111175760008415611105578287013590505b61110f8582611094565b865550611177565b601f19841661112586610f04565b60005b8281101561114d57848901358255600182019150602085019450602081019050611128565b8683101561116a5784890135611166601f891682611076565b8355505b6001600288020188555050505b50505050505050565b7f4e487b7100000000000000000000000000000000000000000000000000000000600052601160045260246000fd5b60006111ba82610c35565b91507fffffffffffffffffffffffffffffffffffffffffffffffffffffffffffffffff82036111ec576111eb611180565b5b600182019050919050565b6000601f19601f8301169050919050565b60006112148385610cbd565b9350611221838584610d45565b61122a836111f7565b840190509392505050565b60006060820190508181036000830152611250818688611208565b905061125f6020830185610c93565b61126c6040830184610acd565b95945050505050565b7f4e6f742061646d696e0000000000000000000000000000000000000000000000600082015250565b60006112ab600983610cbd565b91506112b682611275565b602082019050919050565b600060208201905081810360008301526112da8161129e565b9050919050565b7f416c72656164792066696e616c697a6564000000000000000000000000000000600082015250565b6000611317601183610cbd565b9150611322826112e1565b602082019050919050565b600060208201905081810360008301526113468161130a565b9050919050565b7f4e6f20766f746573206361737400000000000000000000000000000000000000600082015250565b6000611383600d83610cbd565b915061138e8261134d565b602082019050919050565b600060208201905081810360008301526113b281611376565b9050919050565b600060408201905081810360008301526113d4818587611208565b90506113e36020830184610acd565b949350505050565b7f4e6f74206120766f746572000000000000000000000000000000000000000000600082015250565b6000611421600b83610cbd565b915061142c826113eb565b602082019050919050565b6000602082019050818103600083015261145081611414565b9050919050565b7f416c7265616479206120766f7465720000000000000000000000000000000000600082015250565b600061148d600f83610cbd565b915061149882611457565b602082019050919050565b600060208201905081810360008301526114bc81611480565b905091905056fea2646970667358221220eaf6c4bad5a2ce9c54b9a267e7f90df20d728c3691574c956cf3be378c5439c564736f6c63430008140033",
  "linkReferences": {},
  "deployedLinkReferences": {}
}